{
  "_format": "hh-sol-artifact-1",
  "contractName": "SocialNetwork",
  "sourceName": "contracts/SocialNetwork.sol",
  "abi": [
    {
      "anonymous": false,
      "inputs": [
        {
          "indexed": true,
          "internalType": "address",
          "name": "sender",
          "type": "address"
        },
        {
          "indexed": false,
          "internalType": "uint256",
          "name": "postId",
          "type": "uint256"
        },
        {
          "indexed": false,
          "internalType": "bool",
          "name": "isLike",
          "type": "bool"
        }
      ],
      "name": "LikeToggled",
      "type": "event"
    },
    {
      "anonymous": false,
      "inputs": [
        {
          "indexed": true,
          "internalType": "address",
          "name": "posterAddr",
          "type": "address"
        },
        {
          "indexed": false,
          "internalType": "string",
          "name": "message",
          "type": "string"
        },
        {
          "indexed": false,
          "internalType": "uint256",
          "name": "time",
          "type": "uint256"
        }
      ],
      "name": "TweetPosted",
      "type": "event"
    },
    {
      "inputs": [],
      "name": "getAllPost",
      "outputs": [
        {
          "components": [
            {
              "internalType": "string",
              "name": "message",
              "type": "string"
            },
            {
              "internalType": "uint256",
              "name": "totalLike",
              "type": "uint256"
            },
            {
              "internalType": "uint256",
              "name": "time",
              "type": "uint256"
            },
            {
              "internalType": "address",
              "name": "posterAddr",
              "type": "address"
            }
          ],
          "internalType": "struct SocialNetwork.TweetData[]",
          "name": "",
          "type": "tuple[]"
        },
        {
          "internalType": "bool[]",
          "name": "",
          "type": "bool[]"
        }
      ],
      "stateMutability": "view",
      "type": "function"
    },
    {
      "inputs": [],
      "name": "getLastPostId",
      "outputs": [
        {
          "internalType": "uint256",
          "name": "",
          "type": "uint256"
        }
      ],
      "stateMutability": "view",
      "type": "function"
    },
    {
      "inputs": [
        {
          "internalType": "uint256",
          "name": "_postId",
          "type": "uint256"
        }
      ],
      "name": "getPost",
      "outputs": [
        {
          "internalType": "string",
          "name": "message",
          "type": "string"
        },
        {
          "internalType": "uint256",
          "name": "totalLikes",
          "type": "uint256"
        },
        {
          "internalType": "uint256",
          "name": "time",
          "type": "uint256"
        }
      ],
      "stateMutability": "view",
      "type": "function"
    },
    {
      "inputs": [
        {
          "internalType": "uint256",
          "name": "_postId",
          "type": "uint256"
        }
      ],
      "name": "like",
      "outputs": [],
      "stateMutability": "nonpayable",
      "type": "function"
    },
    {
      "inputs": [
        {
          "internalType": "address",
          "name": "",
          "type": "address"
        },
        {
          "internalType": "uint256",
          "name": "",
          "type": "uint256"
        }
      ],
      "name": "likedTweet",
      "outputs": [
        {
          "internalType": "bool",
          "name": "",
          "type": "bool"
        }
      ],
      "stateMutability": "view",
      "type": "function"
    },
    {
      "inputs": [
        {
          "internalType": "string",
          "name": "_message",
          "type": "string"
        }
      ],
      "name": "post",
      "outputs": [],
      "stateMutability": "nonpayable",
      "type": "function"
    },
    {
      "inputs": [
        {
          "internalType": "uint256",
          "name": "",
          "type": "uint256"
        }
      ],
      "name": "tweetDataMap",
      "outputs": [
        {
          "internalType": "string",
          "name": "message",
          "type": "string"
        },
        {
          "internalType": "uint256",
          "name": "totalLike",
          "type": "uint256"
        },
        {
          "internalType": "uint256",
          "name": "time",
          "type": "uint256"
        },
        {
          "internalType": "address",
          "name": "posterAddr",
          "type": "address"
        }
      ],
      "stateMutability": "view",
      "type": "function"
    },
    {
      "inputs": [
        {
          "internalType": "uint256",
          "name": "_postId",
          "type": "uint256"
        }
      ],
      "name": "unlike",
      "outputs": [],
      "stateMutability": "nonpayable",
      "type": "function"
    }
  ],
  "bytecode": "0x608060405234801561001057600080fd5b50610d97806100206000396000f3fe608060405234801561001057600080fd5b50600436106100885760003560e01c8063a0d96b6f1161005b578063a0d96b6f14610103578063d5ccb90914610141578063da7d9d1014610152578063e82935da1461016857600080fd5b806340731c241461008d57806374d21ae0146100b85780638ee93cf3146100cd5780639cc9e26a146100e0575b600080fd5b6100a061009b3660046108fc565b61017b565b6040516100af9392919061095b565b60405180910390f35b6100cb6100c63660046108fc565b610302565b005b6100cb6100db366004610996565b6103e7565b6100f36100ee3660046108fc565b6104d1565b6040516100af9493929190610a47565b610131610111366004610a7f565b600260209081526000928352604080842090915290825290205460ff1681565b60405190151581526020016100af565b6000546040519081526020016100af565b61015a61058c565b6040516100af929190610af4565b6100cb6101763660046108fc565b610819565b60606000806101b4604051806080016040528060608152602001600081526020016000815260200160006001600160a01b031681525090565b6000548086111561020c5760405162461bcd60e51b815260206004820152600f60248201527f6e6f6e206578697374656e74206964000000000000000000000000000000000060448201526064015b60405180910390fd5b6000868152600160205260409081902081516080810190925280548290829061023490610b9a565b80601f016020809104026020016040519081016040528092919081815260200182805461026090610b9a565b80156102ad5780601f10610282576101008083540402835291602001916102ad565b820191906000526020600020905b81548152906001019060200180831161029057829003601f168201915b5050509183525050600182015460208083019190915260028301546040808401919091526003909301546001600160a01b03166060909201919091528251908301519290910151909891975095509350505050565b33600090815260026020908152604080832084845290915290205460ff1661036c5760405162461bcd60e51b815260206004820152600e60248201527f6469646e2774206c696b652e2e2e0000000000000000000000000000000000006044820152606401610203565b3360009081526002602090815260408083208484528252808320805460ff191690556001918290528220018054916103a383610bea565b9091555050604080518281526000602082015233917f4d5c3df35a8d7d04f2e10db1454548af37ee7449c97a4b4c243681f29c2ea40791015b60405180910390a250565b600080546040805160808101825284815260208082018590524282840152336060830152838552600190529220825191929181906104259082610c50565b506020820151600182015560408201516002820155606090910151600390910180546001600160a01b039092167fffffffffffffffffffffffff000000000000000000000000000000000000000090921691909117905561048a600080546001019055565b336001600160a01b03167f79365ad4f87bfb12e1f7390d6e6128c39800a8d6b51bdea21fdf11520480a88783426040516104c5929190610d10565b60405180910390a25050565b6001602052600090815260409020805481906104ec90610b9a565b80601f016020809104026020016040519081016040528092919081815260200182805461051890610b9a565b80156105655780601f1061053a57610100808354040283529160200191610565565b820191906000526020600020905b81548152906001019060200180831161054857829003601f168201915b5050505060018301546002840154600390940154929390929091506001600160a01b031684565b606080600061059a60005490565b905060008167ffffffffffffffff8111156105b7576105b7610980565b60405190808252806020026020018201604052801561061c57816020015b610609604051806080016040528060608152602001600081526020016000815260200160006001600160a01b031681525090565b8152602001906001900390816105d55790505b50905060008267ffffffffffffffff81111561063a5761063a610980565b604051908082528060200260200182016040528015610663578160200160208202803683370190505b50905060005b8381101561080e5760008181526001602052604080822081516080810190925280548290829061069890610b9a565b80601f01602080910402602001604051908101604052809291908181526020018280546106c490610b9a565b80156107115780601f106106e657610100808354040283529160200191610711565b820191906000526020600020905b8154815290600101906020018083116106f457829003601f168201915b5050505050815260200160018201548152602001600282015481526020016003820160009054906101000a90046001600160a01b03166001600160a01b03166001600160a01b0316815250509050604051806080016040528082600001518152602001826020015181526020018260400151815260200182606001516001600160a01b03168152508483815181106107ab576107ab610d32565b6020908102919091018101919091523360009081526002825260408082208583529092522054835160ff909116908490849081106107eb576107eb610d32565b91151560209283029190910190910152508061080681610d48565b915050610669565b509094909350915050565b33600090815260026020908152604080832084845290915290205460ff16156108845760405162461bcd60e51b815260206004820152600d60248201527f616c7265616479206c696b6564000000000000000000000000000000000000006044820152606401610203565b3360009081526002602090815260408083208484528252808320805460ff19166001908117909155918290528220018054916108bf83610d48565b9091555050604080518281526001602082015233917f4d5c3df35a8d7d04f2e10db1454548af37ee7449c97a4b4c243681f29c2ea40791016103dc565b60006020828403121561090e57600080fd5b5035919050565b6000815180845260005b8181101561093b5760208185018101518683018201520161091f565b506000602082860101526020601f19601f83011685010191505092915050565b60608152600061096e6060830186610915565b60208301949094525060400152919050565b634e487b7160e01b600052604160045260246000fd5b6000602082840312156109a857600080fd5b813567ffffffffffffffff808211156109c057600080fd5b818401915084601f8301126109d457600080fd5b8135818111156109e6576109e6610980565b604051601f8201601f19908116603f01168101908382118183101715610a0e57610a0e610980565b81604052828152876020848701011115610a2757600080fd5b826020860160208301376000928101602001929092525095945050505050565b608081526000610a5a6080830187610915565b60208301959095525060408101929092526001600160a01b0316606090910152919050565b60008060408385031215610a9257600080fd5b82356001600160a01b0381168114610aa957600080fd5b946020939093013593505050565b600081518084526020808501945080840160005b83811015610ae9578151151587529582019590820190600101610acb565b509495945050505050565b60006040808301818452808651808352606092508286019150828160051b8701016020808a0160005b84811015610b7a57605f198a8503018652815160808151818752610b4382880182610915565b83870151888801528b8401518c890152928a01516001600160a01b0316968a01969096525095830195935090820190600101610b1d565b505087820390880152610b8d8189610ab7565b9998505050505050505050565b600181811c90821680610bae57607f821691505b602082108103610bce57634e487b7160e01b600052602260045260246000fd5b50919050565b634e487b7160e01b600052601160045260246000fd5b600081610bf957610bf9610bd4565b506000190190565b601f821115610c4b57600081815260208120601f850160051c81016020861015610c285750805b601f850160051c820191505b81811015610c4757828155600101610c34565b5050505b505050565b815167ffffffffffffffff811115610c6a57610c6a610980565b610c7e81610c788454610b9a565b84610c01565b602080601f831160018114610cb35760008415610c9b5750858301515b600019600386901b1c1916600185901b178555610c47565b600085815260208120601f198616915b82811015610ce257888601518255948401946001909101908401610cc3565b5085821015610d005787850151600019600388901b60f8161c191681555b5050505050600190811b01905550565b604081526000610d236040830185610915565b90508260208301529392505050565b634e487b7160e01b600052603260045260246000fd5b600060018201610d5a57610d5a610bd4565b506001019056fea2646970667358221220bd4127fdc547ac2f377378bd9b6ae64059d0b5bb94e83cfb7683274593307ad164736f6c63430008110033",
  "linkReferences": {},
  "deployedLinkReferences": {}
}