{
  "_format": "hh-sol-artifact-1",
  "contractName": "SocialNetwork",
  "sourceName": "contracts/SocialNetwork.sol",
  "abi": [
    {
      "anonymous": false,
      "inputs": [
        {
          "indexed": true,
          "internalType": "address",
          "name": "posterAddr",
          "type": "address"
        },
        {
          "indexed": false,
          "internalType": "string",
          "name": "message",
          "type": "string"
        },
        {
          "indexed": false,
          "internalType": "uint256",
          "name": "time",
          "type": "uint256"
        }
      ],
      "name": "TweetPosted",
      "type": "event"
    },
    {
      "anonymous": false,
      "inputs": [
        {
          "indexed": true,
          "internalType": "address",
          "name": "sender",
          "type": "address"
        },
        {
          "indexed": false,
          "internalType": "uint256",
          "name": "postId",
          "type": "uint256"
        },
        {
          "indexed": false,
          "internalType": "bool",
          "name": "isLike",
          "type": "bool"
        }
      ],
      "name": "likeToggled",
      "type": "event"
    },
    {
      "inputs": [],
      "name": "getAllPost",
      "outputs": [
        {
          "components": [
            {
              "internalType": "uint256",
              "name": "postId",
              "type": "uint256"
            },
            {
              "internalType": "string",
              "name": "message",
              "type": "string"
            },
            {
              "internalType": "uint256",
              "name": "totalLike",
              "type": "uint256"
            },
            {
              "internalType": "bool",
              "name": "isLike",
              "type": "bool"
            },
            {
              "internalType": "uint256",
              "name": "time",
              "type": "uint256"
            },
            {
              "internalType": "address",
              "name": "posterAddr",
              "type": "address"
            }
          ],
          "internalType": "struct SocialNetwork.TweetDataForDisplay[]",
          "name": "",
          "type": "tuple[]"
        }
      ],
      "stateMutability": "view",
      "type": "function"
    },
    {
      "inputs": [],
      "name": "getLastPostId",
      "outputs": [
        {
          "internalType": "uint256",
          "name": "",
          "type": "uint256"
        }
      ],
      "stateMutability": "view",
      "type": "function"
    },
    {
      "inputs": [
        {
          "internalType": "uint256",
          "name": "_postId",
          "type": "uint256"
        }
      ],
      "name": "getPost",
      "outputs": [
        {
          "internalType": "string",
          "name": "message",
          "type": "string"
        },
        {
          "internalType": "uint256",
          "name": "totalLikes",
          "type": "uint256"
        },
        {
          "internalType": "uint256",
          "name": "time",
          "type": "uint256"
        }
      ],
      "stateMutability": "view",
      "type": "function"
    },
    {
      "inputs": [
        {
          "internalType": "uint256",
          "name": "_postId",
          "type": "uint256"
        }
      ],
      "name": "like",
      "outputs": [],
      "stateMutability": "nonpayable",
      "type": "function"
    },
    {
      "inputs": [
        {
          "internalType": "address",
          "name": "",
          "type": "address"
        },
        {
          "internalType": "uint256",
          "name": "",
          "type": "uint256"
        }
      ],
      "name": "likedTweet",
      "outputs": [
        {
          "internalType": "bool",
          "name": "",
          "type": "bool"
        }
      ],
      "stateMutability": "view",
      "type": "function"
    },
    {
      "inputs": [
        {
          "internalType": "string",
          "name": "_message",
          "type": "string"
        }
      ],
      "name": "post",
      "outputs": [],
      "stateMutability": "nonpayable",
      "type": "function"
    },
    {
      "inputs": [
        {
          "internalType": "uint256",
          "name": "",
          "type": "uint256"
        }
      ],
      "name": "tweetDataMap",
      "outputs": [
        {
          "internalType": "string",
          "name": "message",
          "type": "string"
        },
        {
          "internalType": "uint256",
          "name": "totalLike",
          "type": "uint256"
        },
        {
          "internalType": "uint256",
          "name": "time",
          "type": "uint256"
        },
        {
          "internalType": "address",
          "name": "posterAddr",
          "type": "address"
        }
      ],
      "stateMutability": "view",
      "type": "function"
    },
    {
      "inputs": [
        {
          "internalType": "uint256",
          "name": "_postId",
          "type": "uint256"
        }
      ],
      "name": "unlike",
      "outputs": [],
      "stateMutability": "nonpayable",
      "type": "function"
    }
  ],
  "bytecode": "0x608060405234801561001057600080fd5b50610ce5806100206000396000f3fe608060405234801561001057600080fd5b50600436106100885760003560e01c8063a0d96b6f1161005b578063a0d96b6f14610103578063d5ccb90914610141578063da7d9d1014610152578063e82935da1461016757600080fd5b806340731c241461008d57806374d21ae0146100b85780638ee93cf3146100cd5780639cc9e26a146100e0575b600080fd5b6100a061009b366004610883565b61017a565b6040516100af939291906108e2565b60405180910390f35b6100cb6100c6366004610883565b610301565b005b6100cb6100db36600461091d565b6103e6565b6100f36100ee366004610883565b6104d0565b6040516100af94939291906109ce565b610131610111366004610a06565b600260209081526000928352604080842090915290825290205460ff1681565b60405190151581526020016100af565b6000546040519081526020016100af565b61015a61058b565b6040516100af9190610a3e565b6100cb610175366004610883565b6107a0565b60606000806101b3604051806080016040528060608152602001600081526020016000815260200160006001600160a01b031681525090565b6000548086111561020b5760405162461bcd60e51b815260206004820152600f60248201527f6e6f6e206578697374656e74206964000000000000000000000000000000000060448201526064015b60405180910390fd5b6000868152600160205260409081902081516080810190925280548290829061023390610ae8565b80601f016020809104026020016040519081016040528092919081815260200182805461025f90610ae8565b80156102ac5780601f10610281576101008083540402835291602001916102ac565b820191906000526020600020905b81548152906001019060200180831161028f57829003601f168201915b5050509183525050600182015460208083019190915260028301546040808401919091526003909301546001600160a01b03166060909201919091528251908301519290910151909891975095509350505050565b33600090815260026020908152604080832084845290915290205460ff1661036b5760405162461bcd60e51b815260206004820152600e60248201527f6469646e2774206c696b652e2e2e0000000000000000000000000000000000006044820152606401610202565b3360009081526002602090815260408083208484528252808320805460ff191690556001918290528220018054916103a283610b38565b9091555050604080518281526000602082015233917ffdcb5f1896b2129da991ef60d116c547d9025cc2d50c293ccf4137451f0583e991015b60405180910390a250565b600080546040805160808101825284815260208082018590524282840152336060830152838552600190529220825191929181906104249082610b9e565b506020820151600182015560408201516002820155606090910151600390910180546001600160a01b039092167fffffffffffffffffffffffff0000000000000000000000000000000000000000909216919091179055610489600080546001019055565b336001600160a01b03167f79365ad4f87bfb12e1f7390d6e6128c39800a8d6b51bdea21fdf11520480a88783426040516104c4929190610c5e565b60405180910390a25050565b6001602052600090815260409020805481906104eb90610ae8565b80601f016020809104026020016040519081016040528092919081815260200182805461051790610ae8565b80156105645780601f1061053957610100808354040283529160200191610564565b820191906000526020600020905b81548152906001019060200180831161054757829003601f168201915b5050505060018301546002840154600390940154929390929091506001600160a01b031684565b6060600061059860005490565b905060008167ffffffffffffffff8111156105b5576105b5610907565b60405190808252806020026020018201604052801561062a57816020015b6106176040518060c001604052806000815260200160608152602001600081526020016000151581526020016000815260200160006001600160a01b031681525090565b8152602001906001900390816105d35790505b50905060005b828110156107995760008181526001602052604080822081516080810190925280548290829061065f90610ae8565b80601f016020809104026020016040519081016040528092919081815260200182805461068b90610ae8565b80156106d85780601f106106ad576101008083540402835291602001916106d8565b820191906000526020600020905b8154815290600101906020018083116106bb57829003601f168201915b505050918352505060018201546020808301919091526002808401546040808501919091526003909401546001600160a01b03908116606094850152845160c0810186528881528651818501528684015181870152336000908152928452858320898452909352908490205460ff161515828401529284015160808201529083015190911660a082015284519192509084908490811061077a5761077a610c80565b602002602001018190525050808061079190610c96565b915050610630565b5092915050565b33600090815260026020908152604080832084845290915290205460ff161561080b5760405162461bcd60e51b815260206004820152600d60248201527f616c7265616479206c696b6564000000000000000000000000000000000000006044820152606401610202565b3360009081526002602090815260408083208484528252808320805460ff191660019081179091559182905282200180549161084683610c96565b9091555050604080518281526001602082015233917ffdcb5f1896b2129da991ef60d116c547d9025cc2d50c293ccf4137451f0583e991016103db565b60006020828403121561089557600080fd5b5035919050565b6000815180845260005b818110156108c2576020818501810151868301820152016108a6565b506000602082860101526020601f19601f83011685010191505092915050565b6060815260006108f5606083018661089c565b60208301949094525060400152919050565b634e487b7160e01b600052604160045260246000fd5b60006020828403121561092f57600080fd5b813567ffffffffffffffff8082111561094757600080fd5b818401915084601f83011261095b57600080fd5b81358181111561096d5761096d610907565b604051601f8201601f19908116603f0116810190838211818310171561099557610995610907565b816040528281528760208487010111156109ae57600080fd5b826020860160208301376000928101602001929092525095945050505050565b6080815260006109e1608083018761089c565b60208301959095525060408101929092526001600160a01b0316606090910152919050565b60008060408385031215610a1957600080fd5b82356001600160a01b0381168114610a3057600080fd5b946020939093013593505050565b60006020808301818452808551808352604092508286019150828160051b87010184880160005b83811015610ada57603f19898403018552815160c08151855288820151818a870152610a938287018261089c565b838a0151878b01526060808501511515908801526080808501519088015260a0938401516001600160a01b0316939096019290925250509386019390860190600101610a65565b509098975050505050505050565b600181811c90821680610afc57607f821691505b602082108103610b1c57634e487b7160e01b600052602260045260246000fd5b50919050565b634e487b7160e01b600052601160045260246000fd5b600081610b4757610b47610b22565b506000190190565b601f821115610b9957600081815260208120601f850160051c81016020861015610b765750805b601f850160051c820191505b81811015610b9557828155600101610b82565b5050505b505050565b815167ffffffffffffffff811115610bb857610bb8610907565b610bcc81610bc68454610ae8565b84610b4f565b602080601f831160018114610c015760008415610be95750858301515b600019600386901b1c1916600185901b178555610b95565b600085815260208120601f198616915b82811015610c3057888601518255948401946001909101908401610c11565b5085821015610c4e5787850151600019600388901b60f8161c191681555b5050505050600190811b01905550565b604081526000610c71604083018561089c565b90508260208301529392505050565b634e487b7160e01b600052603260045260246000fd5b600060018201610ca857610ca8610b22565b506001019056fea2646970667358221220f46d9fbf2e2c6b54635e7b51e447152c85b1d019bc44e4674a34fae5388fe31264736f6c63430008110033",
  "linkReferences": {},
  "deployedLinkReferences": {}
}